import { expect } from 'chai';
import { Transactions } from '../src';

describe('Transaction Creation', () => {
  it('should be able to create an ETH tx', async () => {
    const rawEthTx = {
      value: 3896000000000000,
      to: '0x37d7B3bBD88EFdE6a93cF74D2F5b0385D3E3B08A',
      data:
        '0xb6b4af05000000000000000000000000000000000000000000000000000dd764300b800000000000000000000000000000000000000000000000000000000004a817c8000000000000000000000000000000000000000000000000000000016ada606a26050bb49a5a8228599e0dd48c1368abd36f4f14d2b74a015b2d168dbcab0773ce399393220df874bb22ca961f351e038acd2ba5cc8c764385c9f23707622cc435000000000000000000000000000000000000000000000000000000000000001c7e247d684a635813267b10a63f7f3ba88b28ca2790c909110b28236cf1b9bba03451e83d5834189f28d4c77802fc76b7c760a42bc8bebf8dd15e6ead146805630000000000000000000000000000000000000000000000000000000000000000',
      gasPrice: 20000000000
    };
    const { value, to, data, gasPrice } = rawEthTx;
    const recipients = [{ address: to, amount: value }];
    const cryptoTx = await Transactions.create({
      chain: 'ETH',
      recipients,
      gasPrice,
      nonce: 0,
      data
    });
    const expectedTx =
      'f9014f808504a817c800809437d7b3bbd88efde6a93cf74d2f5b0385d3e3b08a870dd764300b8000b90124b6b4af05000000000000000000000000000000000000000000000000000dd764300b800000000000000000000000000000000000000000000000000000000004a817c8000000000000000000000000000000000000000000000000000000016ada606a26050bb49a5a8228599e0dd48c1368abd36f4f14d2b74a015b2d168dbcab0773ce399393220df874bb22ca961f351e038acd2ba5cc8c764385c9f23707622cc435000000000000000000000000000000000000000000000000000000000000001c7e247d684a635813267b10a63f7f3ba88b28ca2790c909110b28236cf1b9bba03451e83d5834189f28d4c77802fc76b7c760a42bc8bebf8dd15e6ead1468056300000000000000000000000000000000000000000000000000000000000000001c8080';
    expect(cryptoTx).to.equal(expectedTx);
  });

  it('should be able to create an ERC20 tx', async () => {
    const rawEthTx = {
      value: 3896000000000000,
      to: '0x37d7B3bBD88EFdE6a93cF74D2F5b0385D3E3B08A',
      gasPrice: 20000000000
    };
    const { value, to, gasPrice } = rawEthTx;
    const recipients = [{ address: to, amount: value }];
    const cryptoTx = await Transactions.create({
      chain: 'ERC20',
      recipients,
      gasPrice,
      nonce: 0,
      tokenAddress: '0x692a70d2e424a56d2c6c27aa97d1a86395877b3a'
    });
    const expectedTx =
      'f867808504a817c8008094692a70d2e424a56d2c6c27aa97d1a86395877b3a80b844a9059cbb00000000000000000000000037d7b3bbd88efde6a93cf74d2f5b0385d3e3b08a000000000000000000000000000000000000000000000000000dd764300b80001c8080';

    expect(cryptoTx).to.equal(expectedTx);
  });
});
