[
  [
    "from",
    [
      {
        "address": "t1Qv9G4U2n6rKz7aV9y5b2Hc8dR1wXf7sJZ",
        "txId": "a3b7f6e8c1d23f4a9b0c1d2e3f4a5b6c7d8e9f0a1b2c3d4e5f6a7b8c9d0e1f2a",
        "outputIndex": 0,
        "script": "OP_DUP OP_HASH160 20 0x5f2d3c4b6a7e8d9c0b1a2f3e4d5c6b7a8e9f0d1c OP_EQUALVERIFY OP_CHECKSIG",
        "satoshis": 1020000
      }
    ],
    "to",
    [
      "t1ZL4v7yVq8Nw3kP1sD5cJ9rT2mA6hF8bXy",
      1010000
    ],
    "sign",
    [
      "L4cR3vY8gF1kPz7sQ9wBv6tH2nM5xJ3pK8aY"
    ],
    "serialize",
    "0100000001a2f1e0d9c8b7a6f5e4d3c2b1a0f9e8d7c6b5a4f3e2d1c0b9a8f7e6d5c4b3a2000000006a47304402203b1b7d5a9c9f2bff2c8b7d1a3f2e5d6c7b8a9e0f1a2b3c4d5e6f7a8b9c0d1e022014a1b2c3d4e5f6a7b8c9d0e1f2a3b4c5d0121029f8e7d6c5b4a3f2e1d0c9b8a7f6e5d4c3b2a190ffffffff01b86f0f00000000001976a9145f2d3c4b6a7e8d9c0b1a2f3e4d5c6b7a8e9f0d1c88ac00000000"
  ],
  [
    "from",
    [
      {
        "txid": "e1c2b3a4d5e6f7a8b9c0d1e2f3a4b5c6d7e8f9a0b1c2d3e4f5a6b7c8d9e0f1a2",
        "vout": 1,
        "address": "t1N5kQ2mR7sV8bX4cY1pJ6hT9wZ3dL0aMf",
        "scriptPubKey": "76a9140f1e2d3c4b5a69788766554433221100aabbccdd88ac",
        "amount": 0.01080000
      }
    ],
    "to",
    [
      "t1Hk9J3sV2mP4nT7bX5cL8fR1qW6yE0zUaM",
      500000
    ],
    "to",
    [
      "t1Cq7R5bN1pK3sV9yL2mH8xF4wT6dZ0aJuE",
      570000
    ],
    "sign",
    [
      "Kz7sV4bX1nP9mQ2rT6yJ3fH8wL5cZ0aE1uR"
    ],
    "serialize",
    "0100000001a2f10f9e8d7c6b5a4f3e2d1c0b9a8f7e6d5c4b3a29a1b2c3d4e5f6a7b8c9d0000000006b483045022100e1f2d3c4b5a69788766554433221100aabbccddeeff0011223344556677889902202a1b2c3d4e5f6a7b8c9d0e1f2a3b4c5d0121034f5e6d7c8b9a0f1e2d3c4b5a69788765ffffffff0220a10700000000001976a9140f1e2d3c4b5a69788766554433221100aabbccdd88ac90b20800000000001976a9141a2b3c4d5e6f708090a0b0c0d0e0f101112131488ac00000000"
  ],
  [
    "from",
    [
      [
        {
          "txid": "b3c2a1f0e9d8c7b6a5f4e3d2c1b0a9f8e7d6c5b4a3f2e1d0c9b8a7f6e5d4c3b2",
          "vout": 0,
          "address": "t1Hk9J3sV2mP4nT7bX5cL8fR1qW6yE0zUaM",
          "account": "",
          "scriptPubKey": "76a9142a3b4c5d6e7f8090a1b2c3d4e5f6a7b8c9d0e1f288ac",
          "amount": 0.00500000,
          "confirmations": 0
        },
        {
          "txid": "b3c2a1f0e9d8c7b6a5f4e3d2c1b0a9f8e7d6c5b4a3f2e1d0c9b8a7f6e5d4c3b2",
          "vout": 1,
          "address": "t1Cq7R5bN1pK3sV9yL2mH8xF4wT6dZ0aJuE",
          "account": "",
          "scriptPubKey": "76a9143b4c5d6e7f8090a1b2c3d4e5f6a7b8c9d0e1f2088ac",
          "amount": 0.00570000,
          "confirmations": 0
        }
      ]
    ],
    "to",
    [
      "t1Pq2W9zX3mL5nV7cS1aD6hJ8bF4rT0yKeU",
      1060000
    ],
    "sign",
    [
      [
        "Kx9mV2pQ7sC4bZ1rT6yH3nF8wL5aE0uR2jN",
        "Lz1qW3eR5tY7uI9oP2aS4dF6gH8jK0lM1nB"
      ]
    ],
    "serialize",
    "0100000002b2c3d4e5f6a7b8c9d0e1f2a3b4c5d6e7f8090a1b2c3d4e5f6a7b8c9d0a1b2000000006a47304402204c3b2a1f0e9d8c7b6a5f4e3d2c1b0a9f8e7d6c5b4a3f2e1d0c9b8a7f6e5d4c3b02201d2c3b4a5f6e7d8090a1b2c3d4e5f6a7b8c9d0e1012103253c73236acf5ea9085d408220141197f6094de07426bd0d32c7a543614fdd7ffffffffb2c3d4e5f6a7b8c9d0e1f2a3b4c5d6e7f8090a1b2c3d4e5f6a7b8c9d0a1b2010000006a47304402203a9a0b5ee9c67ccb7de4222234f31059354be4f239c99ca24bff30adfec8e8ec02204b4c5d6e7f8090a1b2c3d4e5f6a7b8c9d012102977a001a0a7bbfd1f8a647c7d46e13e8f6920635b328390b43b3303977101149ffffffff01a02c1000000000001976a9149d8e7f6c5b4a3f2e1d0c9b8a7f6e5d4c3b2a19088ac00000000"
  ],
  [
    "from",
    [
      {
        "address": "t1V7xK3pN2sQ6mW1rY9bH4cD8fJ5tZ0uLaE",
        "txid": "f50e13cecda9a438ebd7df213a2899e42b2461a18d4630ee773d26b4f2688bdc",
        "vout": 1,
        "scriptPubKey": "76a914089acaba6af8b2b4fb4bed3b747ab1e4e60b496588ac",
        "amount": 0.01
      }
    ],
    "to",
    [
      "t1M7rY5nV2kQ3bX9cS1pD6hJ8wF4zT0aKeU",
      990000
    ],
    "sign",
    [
      "Kp4Wv9xT1zS6bC3nR8yL2mF5aQ7eH0uJ3rV"
    ],
    "serialize",
    "0100000001dc8b68f2b4263d77ee30468da161242be499283a21dfd7eb38a4a9cdce130ef5010000006a47304402206f3a4b5c7d8e9f0a1b2c3d4e5f6a7b8c9d012203e4901bb0d83688758a9248fdef48bd2000b55cf70111cbef8f206e72a31aaf61012103e26b47e7c0d8946954bf9dd4bc7f9e415437eb98271d05f69e78cef8fc6c9a54ffffffff01301b0f00000000001976a914f50f9826ef186074c6fe206cca6b71472ff07ba888ac00000000"
  ],
  [
    "from",
    [
      {
        "address": "t3P4zY9qW6bR1mN8sV2cK5dH7fL0aX3uJtU",
        "txid": "073281b2cc94e879aaf30ea2e92947d9827b270015849d3a5b96a89ee15bfa66",
        "vout": 0,
        "ts": 1418877950,
        "scriptPubKey": "a9144de752833233fe69a20064f29b2ca0f6399c8af387",
        "amount": 0.00318512,
        "confirmationsFromCache": false
      },
      [
        "03a11e021210a933c247ea9c8dad4bbead281597d508ad84e899de13e4ce98b4ba",
        "03bda2c3cc11a391b36e3d695b03ab42b96fe04086b2349056108d858983e60dab",
        "03c16e6ecf4e02bf9db23d3247ab92db8881f0866133ffb530c3470f6d8dea7330"
      ],
      2
    ],
    "to",
    [
      "t1S3nV6bX8qP2rM5yL9cH1dZ4wF7aK0eTjU",
      300299
    ],
    "sign",
    [
      [
        "L3y1PAXfjayeB3w6NP7qfNxPbuPpQFA6hd6gj4BUKa2xSdLwoVSZ",
        "L3a57fiNjqfbXBdYvvGYPQ1HiDX463mwA2xFGTYVkXYdooaz9Z2u"
      ]
    ],
    "serialize",
    "010000000166fa5be19ea8965b3a9d841500277b82d94729e9a20ef3aa79e894ccb281320700000000fd0047304402202f66fcfc0d5bff109ec12327ca37e0bc7722d08da9538f12468994799534bed602203a0b374f3a6810b0ee26028c390e14f5b6bada8fa390f4364d70d04aee240d350147304402206757f710f25937cd846fd8c56687c463a4561e9e0421fc173c78eaf2de9b9a7d02204995db6b81513b67a42b09dabab6ed4cb90901c52f6f945b768827a9390bda60014c69522103411e021210a933c247ea9c8dad4bbead281597d508ad84e899de13e4ce98b4ba2103bda2c3cc11a391b36e3d695b03ab42b96fe04086b2349056108d858983e60dab2103c16e6ecf4e02bf9db23d3247ab92db8881f0866133ffb530c3470f6d8dea733053aeffffffff010b9504000000000017a9144de752833233fe69a20064f29b2ca0f6399c8af38700000000"
  ],
  [
    "from",
    [
      {
        "address": "t1BzV6uW5pQ9mK2rX3cN4sD7hF8aY1tLeR",
        "txid": "afbf98ca4a43db8915d75184b5204fbe71d916482adfe85cb0ed3635764fc220",
        "vout": 0,
        "ts": 1418878108,
        "scriptPubKey": "a9146c8d8b04c6a1e664b1ec20ec932760760c97688e87",
        "amount": 0.00318512,
        "confirmationsFromCache": false
      },
      [
        "020483ebb834d91d494a3b649cf0e8f5c9c4fcec5f194ab94341cc99bb440007f2",
        "0271ebaeef1c2bf0c1a4772d1391eab03e4d96a6e9b48551ab4e4b0d2983eb452b",
        "03a659828aabe443e2dedabb1db5a22335c5ace5b5b7126998a288d63c99516dd8"
      ],
      2
    ],
    "from",
    [
      {
        "address": "t1BzV6uW5pQ9mK2rX3cN4sD7hF8aY1tLeR",
        "txid": "dc2e197ab72f71912c39bc23a42d823a3aa8d469fe65eb591c086e60d14c64a0",
        "vout": 0,
        "ts": 1418878014,
        "scriptPubKey": "a9146c8d8b04c6a1e664b1ec20ec932760760c97688e87",
        "amount": 0.00300299,
        "confirmationsFromCache": false
      },
      [
        "020483ebb834d91d494a3b649cf0e8f5c9c4fcec5f194ab94341cc99bb440007f2",
        "0271ebaeef1c2bf0c1a4772d1391eab03e4d96a6e9b48551ab4e4b0d2983eb452b",
        "03a659828aabe443e2dedabb1db5a22335c5ace5b5b7126998a288d63c99516dd8"
      ],
      2
    ],
    "to",
    [
      "t1Qv9G4U2n6rKz7aV9y5b2Hc8dR1wXf7sJZ",
      150000
    ],
    "to",
    [
      "t1Qv9G4U2n6rKz7aV9y5b2Hc8dR1wXf7sJZ",
      160000
    ],
    "change",
    [
      "t3P4zY9qW6bR1mN8sV2cK5dH7fL0aX3uJtU"
    ],
    "sign",
    [
      "Kx7V6n5M4b3C2a1S0d9F8g7H6j5K4l3P2qR"
    ],
    "sign",
    [
      "L4jFVcDaqZCkknP5KQWjCBgiLFxKxRxywNGTucm3jC3ozByZcbZv"
    ],
    "serialize",
    "010000000220c24f763536edb05ce8df2a4816d971be4f20b58451d71589db434aca98bfaf00000000fe00473044022077fca9eb2544894068c47028855b0cf147526e9a54d993b7aa028908526944ea02203223ca379fa06b5544c02ed74b3ebb9734e2a9e09bca9b572aa56443a3be4d8d0147304402205caaf5666489ab005f280d30afbcda4d8f6f7195b0a13de89bc1e80f58219f5e02205414938c9d0496f5b45c1f45c028c019b3a956549938c09d983a3cc03e819f05014c695221020483ebb834d91d494a3b649cf0e8f5c9c4fcec5f194ab94341cc99bb440007f2210271ebaeef1c2bf0c1a4772d1391eab03e4d96a6e9b48551ab4e4b0d2983eb452b2103a659828aabe443e2dedabb1db5a22335c5ace5b5b7126998a288d63c99516dd853aeffffffffa0644cd1606e081c59eb65fe69d4a83a3a822da423bc392c91712fb77a192edc00000000fdfe0000483045022100c4c98f6cc0a313aee264ab8171927de590ab495b78f26159e56ba49fc26b1e3802206a12c4d41863756e35f72bd365d862da907272bcb2a949d1d2f64c1867d88ce90147304402207035e6083876dcd5512b40bb3d81e2b38393a62f962f8b701efc066db446ae500220121d38105bb58d8b8ad78bbef212c1f958124d47186bcc1ddcccfc0480eb7eb8014c695221020483ebb834d91d494a3b649cf0e8f5c9c4fcec5f194ab94341cc99bb440007f2210271ebaeef1c2bf0c1a4772d1391eab03e4d96a6e9b48551ab4e4b0d2983eb452b2103a659828aabe443e2dedabb1db5a22335c5ace5b5b7126998a288d63c99516dd853aeffffffff03f04902000000000017a9144de752833233fe69a20064f29b2ca0f6399c8af387007102000000000017a9144de752833233fe69a20064f29b2ca0f6399c8af3873b8f04000000000017a9146c8d8b04c6a1e664b1ec20ec932760760c97688e8700000000"
  ]
]
