{
  "header":{
    "hash":"0000000000388126659ce43a6933bf0a10e63847489df8be552ec77b8f229839",
    "prevHash":"000000000039b0d07d9b6dc833edf09882064db7c741873e0fb73a3efcfa0b4f",
    "bits": 457056800,
    "time": 1625036834,
    "nonce": 14666926616331039768,
    "version": 1,
    "size": 933,
    "height": 15290,
    "epochBlock": "00000000000137ee802999a87a55eee4cb0eaaeb7fe4306a4ab179b04b21a363",
    "merkleRoot":"8fd805fde159c8a70afe11aff80c86b0dfdd11b9c937cc3af5629b062ae1c07b",
    "extendedMetadatahex" :
    "9a538906e6466ebd2617d321f71bc94e56056ce213d366773699e28158e00614"
  },
  "transactions":[
    {
      "txid": "0d2f101fa45d562a1915996caca920307db1e4970066c83e90754b44bcea7e67",
      "hash": "f39d518b333e48d8fc3db55fc6cefd1151b7adb98faee1be3295e506787655b1",
      "version": 2,
      "size": 546,
      "locktime": 0,
      "vin": [
        {
          "coinbase": "0000",
          "sequence": 4294967295
        }
      ],
      "vout": [
        {
          "value": 0.000000,
          "n": 0,
          "scriptPubKey": {
            "asm": "OP_RETURN 6c6f676f73 15290",
            "hex": "6a056c6f676f7302ba3b",
            "type": "nulldata"
          }
        },
        {
          "value": 915.551741,
          "n": 1,
          "scriptPubKey": {
            "asm": "OP_DUP OP_HASH160 8d91da546b8689c0b366e05b96fd1acb9c4f5b76 OP_EQUALVERIFY OP_CHECKSIG",
            "hex": "76a9148d91da546b8689c0b366e05b96fd1acb9c4f5b7688ac",
            "reqSigs": 1,
            "type": "pubkeyhash",
            "addresses": [
              "lotus_16PSJMStv9sve3DfhDpiwUCa7RtqkyNBoS8Tetzaj"
            ]
          }
        },
        {
          "value": 70.427056,
          "n": 2,
          "scriptPubKey": {
            "asm": "OP_HASH160 b6c79031b71d86ab0d617e1e1e706ec4ee34b07f OP_EQUAL",
            "hex": "a914b6c79031b71d86ab0d617e1e1e706ec4ee34b07f87",
            "reqSigs": 1,
            "type": "scripthash",
            "addresses": [
              "lotus_1PrRRtdU3rs7VzEB5Q15ka3n8AQ1wuYfWVxkip"
            ]
          }
        },
        {
          "value": 70.427056,
          "n": 3,
          "scriptPubKey": {
            "asm": "OP_DUP OP_HASH160 b8ae1c47effb58f72f7bca819fe7fc252f9e852e OP_EQUALVERIFY OP_CHECKSIG",
            "hex": "76a914b8ae1c47effb58f72f7bca819fe7fc252f9e852e88ac",
            "reqSigs": 1,
            "type": "pubkeyhash",
            "addresses": [
              "lotus_16PSJNmTgBKxN9B7mFr1gAvvfVWtouwpHG7A2HHq9"
            ]
          }
        },
        {
          "value": 70.427056,
          "n": 4,
          "scriptPubKey": {
            "asm": "OP_DUP OP_HASH160 b50b86a893d80c9e2ee72b199612374b7b4c1cd8 OP_EQUALVERIFY OP_CHECKSIG",
            "hex": "76a914b50b86a893d80c9e2ee72b199612374b7b4c1cd888ac",
            "reqSigs": 1,
            "type": "pubkeyhash",
            "addresses": [
              "lotus_16PSJNf1EDEfGvaYzaXJCJZrXH4pgiTo7kyUBtq76"
            ]
          }
        },
        {
          "value": 70.427056,
          "n": 5,
          "scriptPubKey": {
            "asm": "OP_DUP OP_HASH160 da76a31b6760dcb90aa469c15965da6e80096e45 OP_EQUALVERIFY OP_CHECKSIG",
            "hex": "76a914da76a31b6760dcb90aa469c15965da6e80096e4588ac",
            "reqSigs": 1,
            "type": "pubkeyhash",
            "addresses": [
              "lotus_16PSJPoTfNYv5RzN7kzYUN4m1FWgnZFsmkdzGw2WH"
            ]
          }
        },
        {
          "value": 70.427056,
          "n": 6,
          "scriptPubKey": {
            "asm": "OP_DUP OP_HASH160 1325d2d8ba6e8c7d99ff66d21530917cc73429d2 OP_EQUALVERIFY OP_CHECKSIG",
            "hex": "76a9141325d2d8ba6e8c7d99ff66d21530917cc73429d288ac",
            "reqSigs": 1,
            "type": "pubkeyhash",
            "addresses": [
              "lotus_16PSJHhULzYgupzGnvDysUFLxYxBVwx92JjYYMsLL"
            ]
          }
        },
        {
          "value": 70.427056,
          "n": 7,
          "scriptPubKey": {
            "asm": "OP_DUP OP_HASH160 6a171891ab9443020bd2755ef79c6e59efc59265 OP_EQUALVERIFY OP_CHECKSIG",
            "hex": "76a9146a171891ab9443020bd2755ef79c6e59efc5926588ac",
            "reqSigs": 1,
            "type": "pubkeyhash",
            "addresses": [
              "lotus_16PSJLMtCuFnyMb3rz4zbbhAtJgppp8GiY5QsuiqG"
            ]
          }
        },
        {
          "value": 70.427056,
          "n": 8,
          "scriptPubKey": {
            "asm": "OP_DUP OP_HASH160 19e8d8d0edab6ec43f04b656bff72af78d63ff65 OP_EQUALVERIFY OP_CHECKSIG",
            "hex": "76a91419e8d8d0edab6ec43f04b656bff72af78d63ff6588ac",
            "reqSigs": 1,
            "type": "pubkeyhash",
            "addresses": [
              "lotus_16PSJHuUsbDo5qZUjygQgtJLMsZgcpSB6wD88B8am"
            ]
          }
        },
        {
          "value": 70.427056,
          "n": 9,
          "scriptPubKey": {
            "asm": "OP_DUP OP_HASH160 c6492d4e44dcd0051e60a8add6af02b2f291b2aa OP_EQUALVERIFY OP_CHECKSIG",
            "hex": "76a914c6492d4e44dcd0051e60a8add6af02b2f291b2aa88ac",
            "reqSigs": 1,
            "type": "pubkeyhash",
            "addresses": [
              "lotus_16PSJPBdBwEVm7Jc9TUu5HJ9BfSF1Zducyz8Qar1G"
            ]
          }
        },
        {
          "value": 70.427056,
          "n": 10,
          "scriptPubKey": {
            "asm": "OP_DUP OP_HASH160 b5aeafec9f2972110c4c6af9508a3c41e1d3c73b OP_EQUALVERIFY OP_CHECKSIG",
            "hex": "76a914b5aeafec9f2972110c4c6af9508a3c41e1d3c73b88ac",
            "reqSigs": 1,
            "type": "pubkeyhash",
            "addresses": [
              "lotus_16PSJNg8t4kNdmkbuBMCStuiTppNBPacR7Vda5AeU"
            ]
          }
        },
        {
          "value": 70.427056,
          "n": 11,
          "scriptPubKey": {
            "asm": "OP_DUP OP_HASH160 7c28aa91b93faf8aee0a6520a0a83f42dbc4a45b OP_EQUALVERIFY OP_CHECKSIG",
            "hex": "76a9147c28aa91b93faf8aee0a6520a0a83f42dbc4a45b88ac",
            "reqSigs": 1,
            "type": "pubkeyhash",
            "addresses": [
              "lotus_16PSJLuySPxRuYA7tHbtj2sPJUcjykCK4iQi5xFas"
            ]
          }
        },
        {
          "value": 70.427056,
          "n": 12,
          "scriptPubKey": {
            "asm": "OP_DUP OP_HASH160 b18eb08c4978e73480743b1598061d3cf38e10a8 OP_EQUALVERIFY OP_CHECKSIG",
            "hex": "76a914b18eb08c4978e73480743b1598061d3cf38e10a888ac",
            "reqSigs": 1,
            "type": "pubkeyhash",
            "addresses": [
              "lotus_16PSJNYoyD5shoSAGFqQV721fnd1GJvhYzTgsMGNG"
            ]
          }
        },
        {
          "value": 70.427056,
          "n": 13,
          "scriptPubKey": {
            "asm": "OP_DUP OP_HASH160 7d0893d1a278bab27e7ad92ed88bd7dceafd83a5 OP_EQUALVERIFY OP_CHECKSIG",
            "hex": "76a9147d0893d1a278bab27e7ad92ed88bd7dceafd83a588ac",
            "reqSigs": 1,
            "type": "pubkeyhash",
            "addresses": [
              "lotus_16PSJLwXY2n1S8Z3jhtN9MguFJJ8wKmq6hMB1X1eM"
            ]
          }
        },
        {
          "value": 70.427056,
          "n": 14,
          "scriptPubKey": {
            "asm": "OP_DUP OP_HASH160 4b869f9a55c57003df178bdc801184109d904f8b OP_EQUALVERIFY OP_CHECKSIG",
            "hex": "76a9144b869f9a55c57003df178bdc801184109d904f8b88ac",
            "reqSigs": 1,
            "type": "pubkeyhash",
            "addresses": [
              "lotus_16PSJKRboULfDQVt85YA6BRi7E7jQhRP3KTQibTkh"
            ]
          }
        }
      ],
      "hex": "02000000010000000000000000000000000000000000000000000000000000000000000000ffffffff020000ffffffff0f00000000000000000a6a056c6f676f7302ba3bfd359236000000001976a9148d91da546b8689c0b366e05b96fd1acb9c4f5b7688acb0a132040000000017a914b6c79031b71d86ab0d617e1e1e706ec4ee34b07f87b0a13204000000001976a914b8ae1c47effb58f72f7bca819fe7fc252f9e852e88acb0a13204000000001976a914b50b86a893d80c9e2ee72b199612374b7b4c1cd888acb0a13204000000001976a914da76a31b6760dcb90aa469c15965da6e80096e4588acb0a13204000000001976a9141325d2d8ba6e8c7d99ff66d21530917cc73429d288acb0a13204000000001976a9146a171891ab9443020bd2755ef79c6e59efc5926588acb0a13204000000001976a91419e8d8d0edab6ec43f04b656bff72af78d63ff6588acb0a13204000000001976a914c6492d4e44dcd0051e60a8add6af02b2f291b2aa88acb0a13204000000001976a914b5aeafec9f2972110c4c6af9508a3c41e1d3c73b88acb0a13204000000001976a9147c28aa91b93faf8aee0a6520a0a83f42dbc4a45b88acb0a13204000000001976a914b18eb08c4978e73480743b1598061d3cf38e10a888acb0a13204000000001976a9147d0893d1a278bab27e7ad92ed88bd7dceafd83a588acb0a13204000000001976a9144b869f9a55c57003df178bdc801184109d904f8b88ac00000000"
    },
    {
      "txid": "4d84a5b8d62c7321b8495194ac58e3112181b75c82dee599f1a9293db31e11e7",
      "hash": "0af93697e7449e78e758eec225c7c9301b2e9fbe7ba2c83335a21bb5852f17a4",
      "version": 2,
      "size": 225,
      "locktime": 15289,
      "vin": [
        {
          "txid": "379b4f0035d2c324d3d43d2140b444182593fb64509224d920624fd8b3cd6636",
          "vout": 1,
          "scriptSig": {
            "asm": "3044022038d1c4dd35751579694fcfe37f13ddce1ac9e7da17a5328f48c11ca7a41457b002204def52e0b132535f1fbc8db81faaa7dd6f3be96cae46eb603e9c6a32e05c780b[ALL|FORKID] 02da35693489e38094df46f0f5d21b45cbbf4ea97184f55195e8c925da922096ef",
            "hex": "473044022038d1c4dd35751579694fcfe37f13ddce1ac9e7da17a5328f48c11ca7a41457b002204def52e0b132535f1fbc8db81faaa7dd6f3be96cae46eb603e9c6a32e05c780b412102da35693489e38094df46f0f5d21b45cbbf4ea97184f55195e8c925da922096ef"
          },
          "sequence": 4294967294
        }
      ],
      "vout": [
        {
          "value": 798.089425,
          "n": 0,
          "scriptPubKey": {
            "asm": "OP_DUP OP_HASH160 0a7e2675882880b2495aa4055c381de14e371ad8 OP_EQUALVERIFY OP_CHECKSIG",
            "hex": "76a9140a7e2675882880b2495aa4055c381de14e371ad888ac",
            "reqSigs": 1,
            "type": "pubkeyhash",
            "addresses": [
              "lotus_16PSJHS6odzg7M8C6HB135LF8icUssnce9CQWAMtL"
            ]
          }
        },
        {
          "value": 2.200000,
          "n": 1,
          "scriptPubKey": {
            "asm": "OP_DUP OP_HASH160 f1afaeb60b88e412d51754e8cb9b302fde7ff60a OP_EQUALVERIFY OP_CHECKSIG",
            "hex": "76a914f1afaeb60b88e412d51754e8cb9b302fde7ff60a88ac",
            "reqSigs": 1,
            "type": "pubkeyhash",
            "addresses": [
              "lotus_16PSJQWhpkqEQDJis9v7RZky1ZUL3mmsaSKF8ksTV"
            ]
          }
        }
      ],
      "hex": "02000000013666cdb3d84f6220d924925064fb93251844b440213dd4d324c3d235004f9b37010000006a473044022038d1c4dd35751579694fcfe37f13ddce1ac9e7da17a5328f48c11ca7a41457b002204def52e0b132535f1fbc8db81faaa7dd6f3be96cae46eb603e9c6a32e05c780b412102da35693489e38094df46f0f5d21b45cbbf4ea97184f55195e8c925da922096effeffffff02d1e0912f000000001976a9140a7e2675882880b2495aa4055c381de14e371ad888acc0912100000000001976a914f1afaeb60b88e412d51754e8cb9b302fde7ff60a88acb93b0000"
    }
  ]
}
